:020000040800F2
:100000000000022085090008D5090008D50900086C
:10001000D5090008D5090008D5090008000000002E
:10002000000000000000000000000000D5090008EA
:10003000D509000800000000D5090008A506000841
:10004000D5090008D5090008D5090008D509000818
:10005000D5090008D5090008D5090008D509000808
:10006000D5090008D5090008D5090008D5090008F8
:10007000D5090008D5090008D5090008D5090008E8
:10008000D5090008D5090008D5090008D5090008D8
:10009000D5090008D5090008D5090008D5090008C8
:1000A000D5090008D5090008D5090008D5090008B8
:1000B000D5090008D5090008D5090008D5090008A8
:1000C000D5090008D5090008D5090008D509000898
:1000D000D5090008D5090008D5090008D509000888
:1000E000D5090008D5090008D5090008D509000878
:1000F000D5090008D5090008D5090008D509000868
:10010000D5090008D5090008D5090008D509000857
:10011000D5090008D5090008D5090008D509000847
:10012000D5090008D5090008D5090008D509000837
:10013000D50900080000000000000000D5090008F3
:10014000D5090008D5090008D5090008D509000817
:10015000D5090008D5090008D5090008D509000807
:10016000D5090008D5090008D5090008D5090008F7
:10017000D5090008D5090008D509000800000000CD
:1001800000000000D5090008000000000000000089
:10019000D50900080000000000000000D509000893
:1001A000000000000000000000000000D509000869
:1001B000D5090008D5090008D5090008D5090008A7
:0401C000D509000855
:1001C400A3F5803A704700BF174B002B08BF134BB1
:1001D4009D46FFF7F5FF00218B460F461348144A4E
:1001E400121A00F086FD0E4B002B00D098470D4BE1
:1001F400002B00D098470020002104000D000D487A
:10020400002802D00C48AFF3008000F017FE200055
:10021400290000F063F800F0DDFB00BF00000800D7
:100224000000000000000000000000006800002042
:10023400E00100200000000000000000AC120008F3
:10024400000000206800002068000020E001002079
:100254000348044B834202D0034B03B11847704751
:100264006800002068000020000000000548064BDC
:100274001B1AD90F01EBA301491002D0034B03B1A0
:100284001847704768000020680000200000000044
:1002940010B5064C237843B9FFF7DAFF044B13B1CA
:1002A4000448AFF300800123237010BD68000020D0
:1002B400000000002012000808B5054B1BB10549D9
:1002C4000548AFF30080BDE80840FFF7CFBF00BF8B
:1002D400000000006C0000202012000880B500AF70
:1002E40000F062F900F008F800F02EF84FF4FA700C
:1002F40000F0A0F9F8E7000080B400AF104B1B6BCE
:100304000F4A43F0010313630E4B1B680D4A23F499
:10031400406313600B4BDB680A4A23F44063D360E9
:10032400084B1B68074A43F480631360054B054A76
:10033400DB68D36000BFBD465DF8047B704700BF37
:10034400003802400000024080B483B000AF0D4B7F
:100354001B6903F020037B607B68002B06D0094BEC
:100364005B69084A23F02003536105E0054B5B6990
:10037400044A43F02003536100BF0C37BD465DF8C7
:10038400047B70470000024080B485B000AF786001
:100394007B6803F00703FB600C4BDB68BB60BA6847
:1003A4004FF6FF031340BB60FB681A02BB6813439C
:1003B40043F0BF6343F40033BB60044ABB68D360BB
:1003C40000BF1437BD465DF8047B704700ED00E0C4
:1003D40080B400AF044BDB681B0A03F00703184624
:1003E400BD465DF8047B704700ED00E080B483B047
:1003F40000AF03463960FB7197F90730002B0ADB25
:100404003B68DAB20C4997F907301201D2B20B44B7
:1004140083F800230AE03B68DAB20849FB7903F069
:100424000F03043B1201D2B20B441A7600BF0C37FF
:10043400BD465DF8047B704700E100E000ED00E09C
:1004440080B489B000AFF860B9607A60FB6803F0EB
:100454000703FB61FB69C3F10703042B28BF0423D3
:10046400BB61FB690433062B02D9FB69033B00E043
:1004740000237B614FF0FF32BB6902FA03F3DA43D6
:10048400BB681A407B699A404FF0FF317B6901FADF
:1004940003F3D9437B680B40134318462437BD4606
:1004A4005DF8047B7047000080B582B000AF7860CF
:1004B4007B68013BB3F1807F01D301230FE00A4A3B
:1004C4007B68013B53600F214FF0FF30FFF78EFF35
:1004D400054B00229A60044B07221A600023184639
:1004E4000837BD4680BD00BF10E000E080B400AF17
:1004F400064BD3F88830054A43F47003C2F88830B9
:1005040000BFBD465DF8047B704700BF00ED00E00E
:1005140080B500AF1D4B1B681C4A23F44043136095
:100524001A4B1B68194A43F480431360184B1B6829
:10053400174A23F0F8031360154B1B68144A43F061
:1005440080031360134B02221A60114B9B68104AFC
:1005540023F0030393600E4B0D4A9B6893600C4B8E
:100564009B681B0903F00F030B4AD35C1A460B4B21
:10057400D3400B4A13600A4B1B680A4AA2FB0323AD
:100584009B091846FFF790FF00BF80BD0070004034
:1005940000380240003C0240601200080024F400CD
:1005A40004000020D34D621080B500AF194B1B68C6
:1005B400184A43F400731360164B1B68154A43F43E
:1005C40080631360134B1B68124A43F480731360F7
:1005D4000320FFF7D9FEFFF7FBFE034600220021AC
:1005E4001846FFF72DFF034619464FF0FF30FFF77B
:1005F400FDFE094B5B6C084A43F480435364064B8D
:100604001B6C054A43F080531364FFF781FF0023FA
:10061400184680BD003C02400038024080B400AF60
:10062400034B1B681846BD465DF8047B704700BF4A
:100634008400002080B584B000AF7860FFF7EEFF3F
:10064400F86000BFFFF7EAFF0246FB68D31A7A6836
:100654009A42F7D800BF00BF1037BD4680BD80B5B1
:1006640084B000AF786039607B681B683A681344D3
:10067400FB60FFF7D3FFB860FA68BB689A4205D9FC
:10068400FA68BB68D31A1846FFF7D4FFFFF7C6FF12
:1006940002467B681A6000BF1037BD4680BD00006B
:1006A40080B400AF044B1B680133034A136000BFDE
:1006B400BD465DF8047B70478400002080B483B09D
:1006C40000AF78604FF06043D3F8803E03F001033D
:1006D400002B13D04FF06043D3F8003E03F0010326
:1006E400002B0BD000E000BF4FF060431B68002BD1
:1006F400F9D04FF060437A68D2B21A707B6818461A
:100704000C37BD465DF8047B704780B400AF00BF72
:10071400BD465DF8047B704780B400AF01231846E2
:10072400BD465DF8047B704780B483B000AF786049
:100734003960054B16221A604FF0FF3318460C3708
:10074400BD465DF8047B7047CC01002080B582B0C3
:1007540000AF78604FF0FF317868FFF7E5FFFEE700
:1007640080B586B000AFF860B9607A6000237B6121
:1007740000237B6109E0BB685A1CBA601B781846E9
:10078400FFF79CFF7B6901337B617A697B689A423E
:10079400F1DB7B6818461837BD4680BD80B485B050
:1007A40000AF7860114B1B68002B02D10F4B104A2D
:1007B4001A600E4B1B68FB600C4B1A687B68134471
:1007C4006A46934205D90B4B0C221A604FF0FF3353
:1007D40006E0064B1A687B681344044A1360FB68FE
:1007E40018461437BD465DF8047B70478C00002022
:1007F400E0010020CC01002080B483B000AF786019
:100804004FF0FF3318460C37BD465DF8047B704744
:1008140080B483B000AF786039603B684FF4005215
:100824005A60002318460C37BD465DF8047B7047B8
:1008340080B483B000AF7860012318460C37BD46FE
:100844005DF8047B704780B485B000AFF860B96090
:100854007A60002318461437BD465DF8047B704760
:1008640080B485B000AFF860B9607A6000231846A0
:100874001437BD465DF8047B70470EB480B482B073
:1008840000AF78604FF0FF3318460837BD465DF877
:10089400047B03B07047000080B483B000AF78607D
:1008A400054B0A221A604FF0FF3318460C37BD4639
:1008B4005DF8047B704700BFCC01002080B483B096
:1008C40000AF7860054B02221A604FF0FF331846E0
:1008D4000C37BD465DF8047B704700BFCC01002097
:1008E40080B483B000AF78604FF0FF3318460C3704
:1008F400BD465DF8047B704780B483B000AF786078
:1009040039603B684FF400525A60002318460C3794
:10091400BD465DF8047B704780B483B000AF786057
:100924003960054B1F221A604FF0FF3318460C370D
:10093400BD465DF8047B7047CC01002080B400AF55
:10094400044B0B221A604FF0FF331846BD465DF886
:10095400047B7047CC01002080B485B000AFF86000
:10096400B9607A60054B0C221A604FF0FF331846C9
:100974001437BD465DF8047B704700BFCC010020EE
:10098400DFF834D00D480E490E4A002302E0D45853
:10099400C4500433C4188C42F9D30B4A0B4C0023C3
:1009A40001E013600432A242FBD3FFF79FFD00F085
:1009B40045FAFFF793FC7047000002200000002076
:1009C40068000020AC12000868000020E00100204C
:1009D400FEE7000008B5064B044613B10021AFF34F
:1009E4000080044B1B6803B198472046FFF7AEFE16
:1009F40000000000C8010020002310B50446C0E92F
:100A04000033C0E90433836081814366C28183611A
:100A1400194608225C3000F06CF9054B6362054B03
:100A2400A362054BE362054B2462236310BD00BF40
:100A34006D0C0008930C0008CB0C0008EF0C0008A8
:100A4400024A0349034800F0F1B800BF0C0000203B
:100A5400891100081800002041680C4B994210B518
:100A6400044601D000F08EFBA168094B994202D0E4
:100A7400204600F087FBE168064B994204D02046EB
:100A8400BDE8104000F07EBB10BD00BF9000002008
:100A9400F80000206001002008B54B6EDA0705D489
:100AA4008B899B0502D4886D00F0F1F9002008BD04
:100AB40008B54B6EDA0705D48B899B0502D4886D83
:100AC40000F0EBF9002008BD10B50B4B0B4C0C4AA1
:100AD4001A60204600220421FFF78EFF04F168000B
:100AE40001220921FFF788FF04F1D0000222BDE8AA
:100AF40010401221FFF780BFC801002090000020A1
:100B0400450A0008014800F0C2B900BFD601002020
:100B1400014800F0C2B900BFD60100202DE9F04120
:100B24000746FFF7EFFF244B1B680BB9FFF7CCFF19
:100B3400224E4FF00408D6E90134013B0FD5356845
:100B4400002D37D14FF4D671384600F013FA04461D
:100B540030BB3060FFF7DCFF0C233B601BE0B4F9D3
:100B64000C50DDB9164BE36004F15800656600F0E3
:100B74008AF9FFF7CDFFC4E90155C4E9045525609E
:100B8400A5610822294604F15C0000F0B2F8C4E92A
:100B94000D55C4E912552046BDE8F0816834CCE710
:100BA400C0E900580C30A0604FF4D072294600F020
:100BB400A0F834603668BEE7C80100200C000020AD
:100BC4000100FFFF10B50446FFF79CFF236A1BB129
:100BD400BDE81040FFF79CBF044B2362044B1B6825
:100BE400002BF5D1FFF770FFF2E700BF5D0A0008A4
:100BF400C801002008B5FFF785FFBDE80840024A98
:100C04000249002000F012B80C0000209D0A0008E0
:100C140008B5044A0449002000F008F8BDE808407B
:100C2400FFF776BF0C000020B50A00082DE9F84351
:100C34000746884614460026D4E90195B9F101090E
:100C440005D52468002CF7D13046BDE8F883AB897C
:100C5400012B07D9B5F90E30013303D029463846A4
:100C6400C04706436835E9E710B50C46B1F90E10E4
:100C740000F0C0F80028ABBF636DA3891B1823F4F0
:100C84008053ACBF6365A38110BD002070472DE97C
:100C9400F0411F468B89DB0505460C46164605D5F3
:100CA400B1F90E100223002200F092F8A389B4F9DE
:100CB4000E1023F48053A38132463B462846BDE8F8
:100CC400F04100F0A9B810B50C46B1F90E1000F0CF
:100CD4007FF8431CA38915BF606523F4805343F454
:100CE4008053A38118BFA38110BDB1F90E1000F089
:100CF40009B802440346934200D1704703F8011B2C
:100D0400F9E7000038B5064D0023044608462B6079
:100D1400FFF772FD431C02D12B6803B1236038BD79
:100D2400CC010020294B1B68834270B504464BD08C
:100D3400C36943B1DB68002B44D1E369196811B17D
:100D4400204600F0ABF8616911B1204600F0A6F826
:100D5400E16911B1204600F0A1F8216B11B12046E0
:100D640000F09CF8616B11B1204600F097F8A16B7C
:100D740011B1204600F092F8A16C11B1204600F0A8
:100D84008DF8616C11B1204600F088F8E16A11B168
:100D9400204600F083F8236AB3B12046BDE87040D2
:100DA4001847495941B90435E369802DD968F8D108
:100DB400204600F073F8C0E70E68204600F06EF895
:100DC4003146EFE70025EFE770BD00BF6400002067
:100DD40038B5074D04460846114600222A601A46D3
:100DE400FFF731FD431C02D12B6803B1236038BDEA
:100DF400CC01002038B5074D0446084611460022B0
:100E04002A601A46FFF72CFD431C02D12B6803B15C
:100E1400236038BDCC01002038B5074D0446084690
:100E2400114600222A601A46FFF79AFC431C02D19D
:100E34002B6803B1236038BDCC01002070B50D4D83
:100E44000D4C641BA4100026A64209D10B4D0C4C7A
:100E540000F0E6F9641BA4100026A64205D170BD7B
:100E640055F8043B98470136EEE755F8043B98479C
:100E74000136F2E7A4120008A4120008A412000824
:100E8400A812000870477047704770477047704752
:100E940001207047012070477047704737B500291B
:100EA40044D051F8043C0190002BA1F10404B8BFD4
:100EB400E41800F0D5F81E4A0198136833B963604A
:100EC400146003B0BDE8304000F0D0B8A34208D9A4
:100ED400256861198B4201BF19685B684919216053
:100EE400EDE71A465B680BB1A342FAD911685518AD
:100EF400A5420BD1246821445418A3421160E0D1C7
:100F04001C685B6853600C441460DAE702D90C2354
:100F14000360D6E7256861198B4204BF19685B68D2
:100F2400636004BF491921605460CAE703B030BD4F
:100F3400D801002070B50E4E0C463168054611B933
:100F440000F05CF930602146284600F057F9431C54
:100F54000AD0C41C24F00304A04207D0211A284656
:100F640000F04CF9013001D14FF0FF34204670BD40
:100F7400DC0100202DE9F041CD1C25F003050835E6
:100F84000C2D38BF0C25002D074601DBA94205D9DD
:100F94000C233B6000263046BDE8F0812F4E00F064
:100FA4005FF833681C4644BB29463846FFF7C2FF46
:100FB400431C04464FD134682646002E42D1002CEF
:100FC40043D023683146384604EB030800F016F991
:100FD40080453AD123680335ED1A25F00305083519
:100FE4000C2D38BF0C2529463846FFF7A3FF0130E6
:100FF4002BD023682B4423600EE02268521B1ED49E
:101004000B2A16D96119A342256018BF5960636879
:1010140008BF316062514B60384604F10B0600F0A2
:1010240025F826F00706231DF21AB4D09B1BA35003
:10103400B1E76268A3420CBF32605A60ECE7234612
:101044006468B0E734467668B7E70C233B603846FB
:1010540000F00CF89FE72560DEE700BFD801002010
:101064000148FFF714BF00BFD50100200148FFF776
:1010740014BF00BFD50100208A892DE9F04105463F
:1010840010070C4658D44B68002B05DC0B6C002B66
:1010940002DC0020BDE8F081E66A002EF9D00023CE
:1010A40012F480522F68216A2B6032D0606DA389BC
:1010B4005A0705D56368C01A636B0BB1236CC01A59
:1010C40000230246E66A216A2846B047431CA389E6
:1010D40006D129681D292BD8294A0A41D60727D4C5
:1010E40000226260D9042269226004D5421C01D125
:1010F4002B6803B96065616B2F600029C9D004F1C6
:101104004403994202D02846FFF7C8FE00206063DA
:10111400C0E701232846B047411CC8D12B68002BE7
:10112400C5D01D2B01D0162B01D12F60B1E7A389A7
:1011340043F04003A381ADE70F69002FA9D09307C3
:101144000E6808BF4B690F6018BF0023A6EB0708A1
:101154008B60B8F1000F9CDD216AA66A43463A46CB
:101164002846B047002806DCA38943F04003A38146
:101174004FF0FF308EE70744A8EB0008E9E700BF13
:10118400FEFFBFDF38B50B6905460C4613B90025D1
:10119400284638BD18B1036A0BB9FFF713FDB4F93B
:1011A4000C30002BF3D0626ED00704D4990502D41E
:1011B400A06DFFF76CFE28462146FFF75DFF636EC6
:1011C400DA070546E4D4A3899B05E1D4A06DFFF7B3
:1011D40064FEDDE7014620B9044A05490548FFF7E6
:1011E40025BD054B1868FFF7CDBF00BF0C000020DC
:1011F40089110008180000206400002038B5064D4D
:101204000023044608462B60FFF7C8FA431C02D1AA
:101214002B6803B1236038BDCC010020000000001E
:10122400F8B500BFF8BC08BC9E467047F8B500BFCF
:08123400F8BC08BC9E4670479F
:10123C003B3E0B3E103E253E333E033E063E143EE7
:10124C000E3E0D3E243E123E273E023E183E093E07
:10125C000A3E000000000000000000000102030430
:10126C000607080900000000010203043B3E0B3E88
:10127C00103E253E333E033E063E143E0E3E0D3ED2
:10128C00243E123E273E023E183E093E0A3E000016
:08129C0028EFFF7F01000000B4
:0412A400BD0200087F
:0412A80095020008A3
:1012AC00000000000024F400880000200000000072
:1012BC0003000000900000200000000090000020BF
:1012CC00F800002060010020000000000000000079
:1012DC000000000000000000000000000000000002
:1012EC0000000000000000000000000000000000F2
:1012FC0000000000000000000000000000000000E2
:08130C000000000018000020A1
:040000050800098561
:00000001FF
